{
  "contractName": "Buidl",
  "abi": [
    {
      "constant": false,
      "inputs": [],
      "name": "destroy",
      "outputs": [],
      "payable": false,
      "stateMutability": "nonpayable",
      "type": "function"
    },
    {
      "constant": true,
      "inputs": [],
      "name": "owner",
      "outputs": [
        {
          "name": "",
          "type": "address"
        }
      ],
      "payable": false,
      "stateMutability": "view",
      "type": "function"
    },
    {
      "constant": true,
      "inputs": [],
      "name": "numberOfAgreements",
      "outputs": [
        {
          "name": "",
          "type": "uint256"
        }
      ],
      "payable": false,
      "stateMutability": "view",
      "type": "function"
    },
    {
      "constant": false,
      "inputs": [
        {
          "name": "newOwner",
          "type": "address"
        }
      ],
      "name": "transferOwnership",
      "outputs": [],
      "payable": false,
      "stateMutability": "nonpayable",
      "type": "function"
    },
    {
      "constant": false,
      "inputs": [
        {
          "name": "_recipient",
          "type": "address"
        }
      ],
      "name": "destroyAndSend",
      "outputs": [],
      "payable": false,
      "stateMutability": "nonpayable",
      "type": "function"
    },
    {
      "inputs": [],
      "payable": true,
      "stateMutability": "payable",
      "type": "constructor"
    },
    {
      "anonymous": false,
      "inputs": [
        {
          "indexed": true,
          "name": "previousOwner",
          "type": "address"
        },
        {
          "indexed": true,
          "name": "newOwner",
          "type": "address"
        }
      ],
      "name": "OwnershipTransferred",
      "type": "event"
    },
    {
      "constant": true,
      "inputs": [],
      "name": "getContractBalance",
      "outputs": [
        {
          "name": "",
          "type": "uint256"
        }
      ],
      "payable": false,
      "stateMutability": "view",
      "type": "function"
    },
    {
      "constant": true,
      "inputs": [],
      "name": "getOwner",
      "outputs": [
        {
          "name": "",
          "type": "address"
        }
      ],
      "payable": false,
      "stateMutability": "view",
      "type": "function"
    },
    {
      "constant": false,
      "inputs": [
        {
          "name": "_newOwner",
          "type": "address"
        }
      ],
      "name": "setOwner",
      "outputs": [],
      "payable": false,
      "stateMutability": "nonpayable",
      "type": "function"
    },
    {
      "constant": true,
      "inputs": [],
      "name": "getNumberOfAgreements",
      "outputs": [
        {
          "name": "",
          "type": "uint256"
        }
      ],
      "payable": false,
      "stateMutability": "view",
      "type": "function"
    },
    {
      "constant": false,
      "inputs": [
        {
          "name": "_agreementId",
          "type": "uint256"
        }
      ],
      "name": "createAgreement",
      "outputs": [],
      "payable": true,
      "stateMutability": "payable",
      "type": "function"
    },
    {
      "constant": true,
      "inputs": [
        {
          "name": "_agreementId",
          "type": "uint256"
        }
      ],
      "name": "getAgreementStake",
      "outputs": [
        {
          "name": "",
          "type": "uint256"
        }
      ],
      "payable": false,
      "stateMutability": "view",
      "type": "function"
    },
    {
      "constant": false,
      "inputs": [
        {
          "name": "_to",
          "type": "address"
        },
        {
          "name": "_agreementId",
          "type": "uint256"
        }
      ],
      "name": "withdraw",
      "outputs": [],
      "payable": true,
      "stateMutability": "payable",
      "type": "function"
    }
  ],
  "bytecode": "0x6060604052336000806101000a81548173ffffffffffffffffffffffffffffffffffffffff021916908373ffffffffffffffffffffffffffffffffffffffff16021790555033600160006101000a81548173ffffffffffffffffffffffffffffffffffffffff021916908373ffffffffffffffffffffffffffffffffffffffff16021790555061073e806100946000396000f3006060604052600436106100ba576000357c0100000000000000000000000000000000000000000000000000000000900463ffffffff16806310f7d7d6146100bf57806313af4035146100d75780636f9fb98a1461011057806383197ef014610139578063893d20e81461014e5780638da5cb5b146101a3578063954e6993146101f85780639d1c2aec14610221578063f2fde38b14610258578063f3fef3a314610291578063f5074f41146102c8578063fd4eeacb14610301575b600080fd5b6100d5600480803590602001909190505061032a565b005b34156100e257600080fd5b61010e600480803573ffffffffffffffffffffffffffffffffffffffff16906020019091905050610356565b005b341561011b57600080fd5b61012361039a565b6040518082815260200191505060405180910390f35b341561014457600080fd5b61014c6103b9565b005b341561015957600080fd5b61016161044e565b604051808273ffffffffffffffffffffffffffffffffffffffff1673ffffffffffffffffffffffffffffffffffffffff16815260200191505060405180910390f35b34156101ae57600080fd5b6101b6610478565b604051808273ffffffffffffffffffffffffffffffffffffffff1673ffffffffffffffffffffffffffffffffffffffff16815260200191505060405180910390f35b341561020357600080fd5b61020b61049d565b6040518082815260200191505060405180910390f35b341561022c57600080fd5b61024260048080359060200190919050506104a3565b6040518082815260200191505060405180910390f35b341561026357600080fd5b61028f600480803573ffffffffffffffffffffffffffffffffffffffff169060200190919050506104c0565b005b6102c6600480803573ffffffffffffffffffffffffffffffffffffffff16906020019091908035906020019091905050610615565b005b34156102d357600080fd5b6102ff600480803573ffffffffffffffffffffffffffffffffffffffff16906020019091905050610694565b005b341561030c57600080fd5b610314610708565b6040518082815260200191505060405180910390f35b346003600083815260200190815260200160002081905550600160026000828254019250508190555050565b80600160006101000a81548173ffffffffffffffffffffffffffffffffffffffff021916908373ffffffffffffffffffffffffffffffffffffffff16021790555050565b60003073ffffffffffffffffffffffffffffffffffffffff1631905090565b6000809054906101000a900473ffffffffffffffffffffffffffffffffffffffff1673ffffffffffffffffffffffffffffffffffffffff163373ffffffffffffffffffffffffffffffffffffffff1614151561041457600080fd5b6000809054906101000a900473ffffffffffffffffffffffffffffffffffffffff1673ffffffffffffffffffffffffffffffffffffffff16ff5b6000600160009054906101000a900473ffffffffffffffffffffffffffffffffffffffff16905090565b6000809054906101000a900473ffffffffffffffffffffffffffffffffffffffff1681565b60025481565b600060036000838152602001908152602001600020549050919050565b6000809054906101000a900473ffffffffffffffffffffffffffffffffffffffff1673ffffffffffffffffffffffffffffffffffffffff163373ffffffffffffffffffffffffffffffffffffffff1614151561051b57600080fd5b600073ffffffffffffffffffffffffffffffffffffffff168173ffffffffffffffffffffffffffffffffffffffff161415151561055757600080fd5b8073ffffffffffffffffffffffffffffffffffffffff166000809054906101000a900473ffffffffffffffffffffffffffffffffffffffff1673ffffffffffffffffffffffffffffffffffffffff167f8be0079c531659141344cd1fd0a4f28419497f9722a3daafe3b4186f6b6457e060405160405180910390a3806000806101000a81548173ffffffffffffffffffffffffffffffffffffffff021916908373ffffffffffffffffffffffffffffffffffffffff16021790555050565b8173ffffffffffffffffffffffffffffffffffffffff166108fc60036000848152602001908152602001600020549081150290604051600060405180830381858888f19350505050151561066857600080fd5b600360008281526020019081526020016000206000905560016002600082825403925050819055505050565b6000809054906101000a900473ffffffffffffffffffffffffffffffffffffffff1673ffffffffffffffffffffffffffffffffffffffff163373ffffffffffffffffffffffffffffffffffffffff161415156106ef57600080fd5b8073ffffffffffffffffffffffffffffffffffffffff16ff5b60006002549050905600a165627a7a72305820e23dd1a1b2664cb712b40ca86982e2d50612e2ffa76989cbb04dd468d93b6b7c0029",
  "source": "pragma solidity ^0.4.19;\n\nimport \"./zeppelin/Destructible.sol\";\n\ncontract Buidl is Destructible {\n    address private owner;\n    uint public numberOfAgreements;\n    \n    mapping(uint => uint) agreementStake;\n    \n    // event LogCreateAgreement(uint agreementId, uint agreementStake);\n    \n    function Buidl() public payable {\n        owner = msg.sender;\n    }\n    \n    function getContractBalance() public view returns (uint) {\n        return address(this).balance;\n    }\n    \n    function getOwner() public view returns (address) {\n        return owner;\n    }\n\n    function setOwner(address _newOwner) public {\n        owner = _newOwner;\n    }\n    \n    function getNumberOfAgreements() public view returns (uint) {\n        return numberOfAgreements;\n    }\n    \n    function createAgreement(uint _agreementId) public payable {\n        agreementStake[_agreementId] = msg.value;\n        numberOfAgreements += 1;\n        // emit LogCreateAgreement(_agreementId, msg.value);\n    }\n    \n    function getAgreementStake(uint _agreementId) public view returns (uint) {\n        return (\n            agreementStake[_agreementId]\n        );\n    }\n    \n    function withdraw(address _to, uint _agreementId) public payable {\n        _to.transfer(agreementStake[_agreementId]);\n        delete agreementStake[_agreementId];\n        numberOfAgreements -= 1;\n    }\n}\n",
  "sourcePath": "/Users/pedro/Documents/src/buidl-today/contracts/Buidl.sol",
  "compiler": {
    "name": "solc",
    "version": "0.4.19+commit.c4cbbb05.Emscripten.clang"
  },
  "schemaVersion": "2.0.0",
  "updatedAt": "2018-03-25T23:52:42.026Z"
}